{
  "contractName": "Adoption",
  "abi": [
    {
      "constant": true,
      "inputs": [
        {
          "name": "",
          "type": "uint256"
        }
      ],
      "name": "adopters",
      "outputs": [
        {
          "name": "",
          "type": "address"
        }
      ],
      "payable": false,
      "stateMutability": "view",
      "type": "function"
    },
    {
      "constant": false,
      "inputs": [
        {
          "name": "petID",
          "type": "uint256"
        }
      ],
      "name": "adopt",
      "outputs": [
        {
          "name": "",
          "type": "uint256"
        }
      ],
      "payable": false,
      "stateMutability": "nonpayable",
      "type": "function"
    },
    {
      "constant": true,
      "inputs": [],
      "name": "getAdopters",
      "outputs": [
        {
          "name": "",
          "type": "address[16]"
        }
      ],
      "payable": false,
      "stateMutability": "view",
      "type": "function"
    }
  ],
  "bytecode": "0x608060405234801561001057600080fd5b506102d8806100206000396000f300608060405260043610610057576000357c0100000000000000000000000000000000000000000000000000000000900463ffffffff1680633de4eb171461005c57806343ae80d3146100af5780638588b2c51461011c575b600080fd5b34801561006857600080fd5b5061007161015d565b6040518082601060200280838360005b8381101561009c578082015181840152602081019050610081565b5050505090500191505060405180910390f35b3480156100bb57600080fd5b506100da600480360381019080803590602001909291905050506101de565b604051808273ffffffffffffffffffffffffffffffffffffffff1673ffffffffffffffffffffffffffffffffffffffff16815260200191505060405180910390f35b34801561012857600080fd5b5061014760048036038101908080359060200190929190505050610213565b6040518082815260200191505060405180910390f35b610165610288565b60006010806020026040519081016040528092919082601080156101d4576020028201915b8160009054906101000a900473ffffffffffffffffffffffffffffffffffffffff1673ffffffffffffffffffffffffffffffffffffffff168152602001906001019080831161018a575b5050505050905090565b6000816010811015156101ed57fe5b016000915054906101000a900473ffffffffffffffffffffffffffffffffffffffff1681565b60008082101580156102265750600f8211155b151561023157600080fd5b3360008360108110151561024157fe5b0160006101000a81548173ffffffffffffffffffffffffffffffffffffffff021916908373ffffffffffffffffffffffffffffffffffffffff160217905550819050919050565b610200604051908101604052806010906020820280388339808201915050905050905600a165627a7a72305820a2891e7ef10f0cb907e5f5e070d8bb6ff2c4fd5d821fdf18c1b6a309e322869f0029",
  "source": "pragma solidity ^0.4.17;\n\ncontract Adoption {\n  address[16] public adopters;\n\n  //Adopting a pet\n  function adopt(uint petID) public returns (uint){\n    require(petID >= 0 && petID <= 15);\n\n    adopters[petID] = msg.sender;\n\n    return petID;\n  }\n\n  //Retrieving(取り戻す、 回収する) the adopters 配列全体を返す関数を書く。\n  function getAdopters() public view returns(address[16]){\n    return adopters;\n  }\n}\n\n//Pragma - ^ means:  それ以上のバージョン\n\n//変数adoptersを定義しました。これはEthereumアドレスの配列です。配列には1つの型が含まれ、固定長または可変長を持つことができます。この場合、タイプはaddressで長さは16です。\n\n//また、adoptersがpublicなことに気づくでしょう。public変数には自動ゲッターメソッドがありますが、配列の場合はキーが必要であり、単一の値しか返しません。後で、UI全体で使用するために配列全体を返す関数を作成します。\n\n//この店にはペット用のスペースが16匹分有り、またすでにペットのデータベースは持っています。Solinityの配列は0からインデックスされるため、ID値は0から15の間である必要があります。IDが範囲内にあることを確認するには、 require()ステートメントを使用します。\n\n//IDが範囲内にある場合は、呼び出しを行ったアドレスをadopters配列に追加します。この機能を呼び出した人、または呼び出したスマートコントラクトのアドレスは、 msg.senderによって示されます。最後に、提供された petId を確認のために返します。\n\n//前述のように、配列ゲッターは与えられたキーから単一の値だけを返します。私たちのUIはすべてのペットの採用状況を更新する必要がありますが、16のAPI呼び出しを行うことは理想的ではありません。だから次のステップは、配列全体を返す関数を書くことです。\n",
  "sourcePath": "/Users/reg_wong/Programing/Solidity, Truffle/pet-shop-tutorial/contracts/Adoption.sol",
  "compiler": {
    "name": "solc",
    "version": "0.4.24+commit.e67f0147.Emscripten.clang"
  },
  "schemaVersion": "2.0.1",
  "updatedAt": "2018-11-11T04:16:19.679Z"
}